{
  "_format": "hh-sol-artifact-1",
  "contractName": "axionaxVestingVault",
  "sourceName": "contracts/axionaxVestingVault.sol",
  "abi": [
    {
      "inputs": [
        {
          "internalType": "address",
          "name": "token_",
          "type": "address"
        }
      ],
      "stateMutability": "nonpayable",
      "type": "constructor"
    },
    {
      "anonymous": false,
      "inputs": [
        {
          "indexed": true,
          "internalType": "address",
          "name": "b",
          "type": "address"
        },
        {
          "indexed": false,
          "internalType": "uint256",
          "name": "amt",
          "type": "uint256"
        }
      ],
      "name": "Claimed",
      "type": "event"
    },
    {
      "anonymous": false,
      "inputs": [
        {
          "indexed": true,
          "internalType": "address",
          "name": "b",
          "type": "address"
        },
        {
          "indexed": false,
          "internalType": "uint256",
          "name": "amt",
          "type": "uint256"
        }
      ],
      "name": "Funded",
      "type": "event"
    },
    {
      "anonymous": false,
      "inputs": [
        {
          "indexed": true,
          "internalType": "address",
          "name": "o",
          "type": "address"
        },
        {
          "indexed": true,
          "internalType": "address",
          "name": "n",
          "type": "address"
        }
      ],
      "name": "OwnerChanged",
      "type": "event"
    },
    {
      "anonymous": false,
      "inputs": [
        {
          "indexed": true,
          "internalType": "address",
          "name": "b",
          "type": "address"
        },
        {
          "indexed": false,
          "internalType": "uint256",
          "name": "refund",
          "type": "uint256"
        }
      ],
      "name": "Revoked",
      "type": "event"
    },
    {
      "inputs": [],
      "name": "claim",
      "outputs": [],
      "stateMutability": "nonpayable",
      "type": "function"
    },
    {
      "inputs": [
        {
          "internalType": "address",
          "name": "b",
          "type": "address"
        },
        {
          "internalType": "uint64",
          "name": "start",
          "type": "uint64"
        },
        {
          "internalType": "uint32",
          "name": "cliff",
          "type": "uint32"
        },
        {
          "internalType": "uint32",
          "name": "dur",
          "type": "uint32"
        },
        {
          "internalType": "uint256",
          "name": "total",
          "type": "uint256"
        },
        {
          "internalType": "bool",
          "name": "revocable",
          "type": "bool"
        }
      ],
      "name": "fund",
      "outputs": [],
      "stateMutability": "nonpayable",
      "type": "function"
    },
    {
      "inputs": [],
      "name": "owner",
      "outputs": [
        {
          "internalType": "address",
          "name": "",
          "type": "address"
        }
      ],
      "stateMutability": "view",
      "type": "function"
    },
    {
      "inputs": [
        {
          "internalType": "address",
          "name": "b",
          "type": "address"
        }
      ],
      "name": "revoke",
      "outputs": [],
      "stateMutability": "nonpayable",
      "type": "function"
    },
    {
      "inputs": [
        {
          "internalType": "address",
          "name": "",
          "type": "address"
        }
      ],
      "name": "schedules",
      "outputs": [
        {
          "internalType": "uint64",
          "name": "start",
          "type": "uint64"
        },
        {
          "internalType": "uint32",
          "name": "cliff",
          "type": "uint32"
        },
        {
          "internalType": "uint32",
          "name": "duration",
          "type": "uint32"
        },
        {
          "internalType": "uint256",
          "name": "total",
          "type": "uint256"
        },
        {
          "internalType": "uint256",
          "name": "released",
          "type": "uint256"
        },
        {
          "internalType": "bool",
          "name": "revocable",
          "type": "bool"
        }
      ],
      "stateMutability": "view",
      "type": "function"
    },
    {
      "inputs": [
        {
          "internalType": "address",
          "name": "n",
          "type": "address"
        }
      ],
      "name": "setOwner",
      "outputs": [],
      "stateMutability": "nonpayable",
      "type": "function"
    },
    {
      "inputs": [],
      "name": "token",
      "outputs": [
        {
          "internalType": "contract IERC20",
          "name": "",
          "type": "address"
        }
      ],
      "stateMutability": "view",
      "type": "function"
    },
    {
      "inputs": [
        {
          "internalType": "address",
          "name": "b",
          "type": "address"
        },
        {
          "internalType": "uint64",
          "name": "nowTs",
          "type": "uint64"
        }
      ],
      "name": "vested",
      "outputs": [
        {
          "internalType": "uint256",
          "name": "",
          "type": "uint256"
        }
      ],
      "stateMutability": "view",
      "type": "function"
    }
  ],
  "bytecode": "0x60a060405234801561001057600080fd5b50604051610ea6380380610ea683398101604081905261002f91610052565b6001600160a01b0316608052600080546001600160a01b03191633179055610082565b60006020828403121561006457600080fd5b81516001600160a01b038116811461007b57600080fd5b9392505050565b608051610df46100b2600039600081816101c401528181610391015281816105940152610a460152610df46000f3fe608060405234801561001057600080fd5b50600436106100885760003560e01c80638da5cb5b1161005b5780638da5cb5b14610160578063d68352701461018b578063e856e085146101ac578063fc0c546a146101bf57600080fd5b806313af40351461008d5780634e71d92d146100a257806374a8f103146100aa57806380c3780f146100bd575b600080fd5b6100a061009b366004610b95565b6101e6565b005b6100a06102b3565b6100a06100b8366004610b95565b610478565b6101186100cb366004610b95565b600160208190526000918252604090912080549181015460028201546003909201546001600160401b0384169363ffffffff600160401b8204811694600160601b90920416929160ff1686565b604080516001600160401b0397909716875263ffffffff9586166020880152939094169285019290925260608401526080830152151560a082015260c0015b60405180910390f35b600054610173906001600160a01b031681565b6040516001600160a01b039091168152602001610157565b61019e610199366004610bce565b610686565b604051908152602001610157565b6100a06101ba366004610c26565b610829565b6101737f000000000000000000000000000000000000000000000000000000000000000081565b6000546001600160a01b031633146102195760405162461bcd60e51b815260040161021090610c97565b60405180910390fd5b6001600160a01b0381166102585760405162461bcd60e51b8152600401610210906020808252600490820152637a65726f60e01b604082015260600190565b600080546040516001600160a01b03808516939216917fb532073b38c83145e3e5135377a08bf9aab55bc0fd7c1179cd4fb995d2a5159c91a3600080546001600160a01b0319166001600160a01b0392909216919091179055565b336000908152600160208190526040909120908101546103005760405162461bcd60e51b81526020600482015260086024820152671b9bcb5cd8da195960c21b6044820152606401610210565b600061030c3342610686565b905060008260020154826103209190610cd0565b90506000811161035c5760405162461bcd60e51b81526020600482015260076024820152666e6f7468696e6760c81b6044820152606401610210565b808360020160008282546103709190610ce3565b909155505060405163a9059cbb60e01b8152336004820152602481018290527f00000000000000000000000000000000000000000000000000000000000000006001600160a01b03169063a9059cbb906044016020604051808303816000875af11580156103e2573d6000803e3d6000fd5b505050506040513d601f19601f820116820180604052508101906104069190610cf6565b61043e5760405162461bcd60e51b81526020600482015260096024820152681e19995c8b59985a5b60ba1b6044820152606401610210565b60405181815233907fd8138f8a3f377c5259ca548e70e4c2de94f129f5a11036a15b69513cba2b426a9060200160405180910390a2505050565b6000546001600160a01b031633146104a25760405162461bcd60e51b815260040161021090610c97565b6001600160a01b0381166000908152600160208190526040909120908101546104f85760405162461bcd60e51b81526020600482015260086024820152671b9bcb5cd8da195960c21b6044820152606401610210565b600381015460ff1661053c5760405162461bcd60e51b815260206004820152600d60248201526c6e6f742d7265766f6361626c6560981b6044820152606401610210565b60006105488342610686565b9050600081836001015461055c9190610cd0565b600184018390559050801561063d5760005460405163a9059cbb60e01b81526001600160a01b039182166004820152602481018390527f00000000000000000000000000000000000000000000000000000000000000009091169063a9059cbb906044016020604051808303816000875af11580156105df573d6000803e3d6000fd5b505050506040513d601f19601f820116820180604052508101906106039190610cf6565b61063d5760405162461bcd60e51b815260206004820152600b60248201526a1c99599d5b990b59985a5b60aa1b6044820152606401610210565b836001600160a01b03167f713b90881ad62c4fa8ab6bd9197fa86481fc0c11b2edba60026514281b2dbac48260405161067891815260200190565b60405180910390a250505050565b6001600160a01b0382166000908152600160208181526040808420815160c08101835281546001600160401b038116825263ffffffff600160401b8204811695830195909552600160601b90049093169183019190915291820154606082018190526002830154608083015260039092015460ff16151560a0820152908203610713576000915050610823565b602081015161072b9063ffffffff1662278d00610d13565b81516107379190610d3e565b6001600160401b0316836001600160401b0316101561075a576000915050610823565b6000816020015163ffffffff1662278d006107759190610d13565b82516107819190610d3e565b90506000826040015163ffffffff1662278d0061079e9190610d13565b83516107aa9190610d3e565b9050806001600160401b0316856001600160401b0316106107d2575050606001519050610823565b60006107de8387610d65565b905060006107ec8484610d65565b9050806001600160401b0316826001600160401b031686606001516108119190610d85565b61081b9190610d9c565b955050505050505b92915050565b6000546001600160a01b031633146108535760405162461bcd60e51b815260040161021090610c97565b6001600160a01b0386166108925760405162461bcd60e51b8152600401610210906020808252600490820152637a65726f60e01b604082015260600190565b60008363ffffffff16116108d55760405162461bcd60e51b815260206004820152600a60248201526906475726174696f6e3d360b41b6044820152606401610210565b6001600160a01b03861660009081526001602081905260409091200154156109285760405162461bcd60e51b815260206004820152600660248201526565786973747360d01b6044820152606401610210565b6040518060c00160405280866001600160401b031681526020018563ffffffff1681526020018463ffffffff1681526020018381526020016000815260200182151581525060016000886001600160a01b03166001600160a01b0316815260200190815260200160002060008201518160000160006101000a8154816001600160401b0302191690836001600160401b0316021790555060208201518160000160086101000a81548163ffffffff021916908363ffffffff160217905550604082015181600001600c6101000a81548163ffffffff021916908363ffffffff160217905550606082015181600101556080820151816002015560a08201518160030160006101000a81548160ff0219169083151502179055509050507f00000000000000000000000000000000000000000000000000000000000000006001600160a01b03166323b872dd3330856040518463ffffffff1660e01b8152600401610ab3939291906001600160a01b039384168152919092166020820152604081019190915260600190565b6020604051808303816000875af1158015610ad2573d6000803e3d6000fd5b505050506040513d601f19601f82011682018060405250810190610af69190610cf6565b610b2e5760405162461bcd60e51b8152602060048201526009602482015268199d5b990b59985a5b60ba1b6044820152606401610210565b856001600160a01b03167f5af8184bef8e4b45eb9f6ed7734d04da38ced226495548f46e0c8ff8d7d9a52483604051610b6991815260200190565b60405180910390a2505050505050565b80356001600160a01b0381168114610b9057600080fd5b919050565b600060208284031215610ba757600080fd5b610bb082610b79565b9392505050565b80356001600160401b0381168114610b9057600080fd5b60008060408385031215610be157600080fd5b610bea83610b79565b9150610bf860208401610bb7565b90509250929050565b803563ffffffff81168114610b9057600080fd5b8015158114610c2357600080fd5b50565b60008060008060008060c08789031215610c3f57600080fd5b610c4887610b79565b9550610c5660208801610bb7565b9450610c6460408801610c01565b9350610c7260608801610c01565b92506080870135915060a0870135610c8981610c15565b809150509295509295509295565b6020808252600990820152683737ba16b7bbb732b960b91b604082015260600190565b634e487b7160e01b600052601160045260246000fd5b8181038181111561082357610823610cba565b8082018082111561082357610823610cba565b600060208284031215610d0857600080fd5b8151610bb081610c15565b6001600160401b03818116838216028082169190828114610d3657610d36610cba565b505092915050565b6001600160401b03818116838216019080821115610d5e57610d5e610cba565b5092915050565b6001600160401b03828116828216039080821115610d5e57610d5e610cba565b808202811582820484141761082357610823610cba565b600082610db957634e487b7160e01b600052601260045260246000fd5b50049056fea26469706673582212208db347e17f8ca6ba7945dc2f86470d64667fe3711734cebade63ba7a248a582564736f6c63430008140033",
  "linkReferences": {},
  "deployedLinkReferences": {}
}